:020000040800F2
:10000000002000203D0200084502000829400008A9
:1000100000000000000000000000000000000000E0
:10002000000000000000000000000000BD300008DB
:100030000000000000000000E13100082F4000082F
:100040009D2A00089D2A00089D2A00089D2A000874
:100050009D2A00089D2A00089D2A00085940000892
:100060009D2A00089D2A00089D2A00089D2A000854
:100070009D2A00089D2A0008000000009D2A000813
:10008000000000009D2A00080000000000000000A1
:100090009D2A0008000000009D2A00089D2A0008F3
:1000A0009D2A00089D2A00089D2A0008414000085A
:1000B0009D2A00089D2A00089D2A00089D2A000804
:1000C00080B58EB000AF02F074FC4A4B4A4A1A6009
:1000D0004A4B494A1A604A4B3B634A4BFB624A4BC4
:1000E000BB62FB6A7B6207E07B6A1A1D7A623A6B2D
:1000F000111D396312681A60BA6A7B6A9A42F3D892
:100100003C4B1B68414A934204D13C4B1B68404A1C
:10011000934200D0FEE73F4B374A1A603E4B364AC7
:100120001A603E4B3B623E4BFB613B6ABB6104E0A5
:10013000BB691A1DBA6100221A60FA69BB699A424A
:10014000F6D8344B1B68002B03D1334B1B68002BB4
:1001500000D0FEE702F034FC3A003B1D110018000D
:1001600002F0E6FB2F4A304BD31A9B10FB600023B2
:10017000BB6007E02C4BBA689200D3589847BB6825
:100180000133BB60FA68BB689A42F3DC274A284B0C
:10019000D31A9B10FB600023BB6007E0244BBA68B6
:1001A0009200D3589847BB680133BB60FA68BB68BC
:1001B0009A42F3DC7B683A681100180003F0CAFC2D
:1001C00003007B631B4A1C4BD31A9B107B617B692A
:1001D0003B6108E03B695A1E174B9200D358984781
:1001E0003B69013B3B613B69002BF3DC7B6B1800F7
:1001F00002F064FB00000020BABADECA1C0A00202C
:1002000038A5000800000020200A0020785634128B
:1002100032547698200A002028190020200A002055
:100220002C190020D4020008D4020008D4020008CF
:10023000D4020008D4020008D402000880B500AF40
:10024000FFF73EFF80B500AF00BEFEE70420714619
:10025000084202D0EFF3098001E0EFF30880714615
:10026000114A1047C04680B582B000AF786039604F
:10027000054B180002F06EFB3A687B68110018000D
:1002800002F0A6FB00BEFEE734A0000880B500AF78
:1002900000BEFEE780B500AF00BEFEE780B500AF50
:0C02A000C046BD4680BD0000670200089B
:1002AC0038A5000800000020200A002038A500080E
:1002BC000000001000000010200A00202C19002063
:0802CC0000000010000000100A
:1002E00080B500AF074B074A126840210A431A60E5
:1002F000032000F009F803F00DFE00231800BD46AE
:1003000080BDC0460020024080B582B000AF78605A
:100310000B4B1A68FA239900100003F0A3FE0300A8
:10032000180000F0F3F8796801235B4200221800FE
:1003300000F0C6F800231800BD4602B080BDC046DC
:100340000C00002080B500AF034B1B685A1C024B09
:100350001A60C046BD4680BD2418002080B500AF9D
:10036000024B1B681800BD4680BDC0462418002003
:1003700080B582B000AF0200FB1D1A70064BFA1D5B
:10038000127811001F220A40012191400A001A60D0
:10039000C046BD4602B080BD00E100E0B0B582B00D
:1003A00000AF02003960FB1D1A70FB1D1B787F2B0C
:1003B00032D92F4CFB1D1B781A000F231340083B2A
:1003C00099082B4AFB1D1B7818000F230340083B9C
:1003D0009B0806339B00D31804331B68FA1D127860
:1003E000100003220240D200FF2090400200D243BE
:1003F0001A403B689B01FF201840FB1D1B781D0025
:1004000003232B40DB00984003001A438B1D9B0005
:10041000E31804331A6027E0164CFB1D1B785BB20F
:100420009B081449FA1D127852B29208C032920009
:100430005258F91D0978080003210140C900FF2026
:1004400088400100C94311403A689201FF201040E2
:10045000FA1D1278150003222A40D20090400200B3
:100460000A43C0339B001A51C046BD4602B0B0BD1E
:1004700000ED00E000E100E080B582B000AF786000
:100480007B68013B0C4A934201D9012310E00B4BDE
:100490007A68013A5A6001235B4203211800FFF792
:1004A0007DFF064B00229A60044B07221A6000234E
:1004B0001800BD4602B080BDFFFFFF0010E000E065
:1004C00080B584B000AFB9607A600F23FB18021CBE
:1004D0001A70BA680F23FB181B785BB21100180062
:1004E000FFF75CFFC046BD4604B080BD80B582B05A
:1004F00000AF0200FB1D1A70FB1D1B785BB21800D9
:10050000FFF736FFC046BD4602B080BD80B582B061
:1005100000AF78607B681800FFF7AEFF030018009B
:10052000BD4602B080BD000080B582B000AF7860EB
:100530007B68042B06D1084B074A126804210A4342
:100540001A6005E0044B044A126804218A431A60C9
:10055000C046BD4602B080BD10E000E080B584B06A
:1005600000AF78600F23FB1800221A707B682522E9
:100570009B5CDBB2022B07D07B680422DA630F237B
:10058000FB1801221A7058E07B681B687A681268B1
:1005900012680E218A431A607B681B687A681268A9
:1005A000126801218A431A60274A7B681B68190078
:1005B000264B99422ED07B681B681900244B994228
:1005C00026D07B681B681900224B99421DD07B689E
:1005D0001B681900204B994214D07B681B681900D6
:1005E0001E4B99420BD07B681B6819001C4B99422B
:1005F00002D180235B030EE080235B040BE08023A9
:100600005B0208E080235B0105E080235B0002E0E1
:10061000102300E0012353607B68252201219954B7
:100620007B682422002199547B689B6B002B04D0AB
:100630007B689B6B7A68100098470F23FB181B7828
:100640001800BD4604B080BD000002400800024012
:100650001C000240300002404400024058000240AA
:100660006C00024080B586B000AF7860396000232E
:100670007B610023FB6000233B614FE13B681B680B
:1006800001217A6991400A001340FB60FB68002B4E
:1006900000D140E13B685B68022B03D03B685B689C
:1006A000122B23D17B69DA087B6808329200D35879
:1006B0003B617B69072213409B000F229A40130085
:1006C000DA433B6913403B613B681A697B69072148
:1006D0000B409B009A4013003A6913433B617B69CE
:1006E000DA087B68083292003969D1503B685B6850
:1006F000012B0BD03B685B68022B07D03B685B6823
:10070000112B03D03B685B68122B30D17B689B6850
:100710003B617B695B0003229A401300DA433B692B
:1007200013403B613B68DA687B695B009A401300C9
:100730003A6913433B617B683A699A607B685B68FE
:100740003B6101227B699A401300DA433B69134005
:100750003B613B685B681B0901221A407B699A4038
:1007600013003A6913433B617B683A695A607B68BE
:100770001B683B617B695B0003229A401300DA43EC
:100780003B6913403B613B685B6803221A407B690D
:100790005B009A4013003A6913433B617B683A69F6
:1007A0001A607B68DB683B617B695B0003229A40CF
:1007B0001300DA433B6913403B613B689A687B69ED
:1007C0005B009A4013003A6913433B617B683A69C6
:1007D000DA603B685A6880235B05134000D19AE0D9
:1007E000544B544A526B01210A435A63524A7B6963
:1007F0009B0802339B009B583B617B69032213409B
:100800009B000F229A401300DA433B6913403B617F
:100810007A68A023DB059A4219D07B68474A934245
:1008200013D07B68464A93420DD07B68454A934279
:1008300007D07B68444A934201D1052308E0062390
:1008400006E0032304E0022302E0012300E000238A
:100850007A6903210A40920093403A6913433B614D
:1008600035497B699B0802339B003A695A50374BE4
:100870001B683B61FB68DA433B6913403B613B68A3
:100880005A6880235B02134003D03A69FB68134324
:100890003B612E4B3A691A602C4B5B683B61FB68ED
:1008A000DA433B6913403B613B685A6880239B02F3
:1008B000134003D03A69FB6813433B61234B3A6909
:1008C0005A60224B9B683B61FB68DA433B691340EB
:1008D0003B613B685A6880235B03134003D03A694D
:1008E000FB6813433B61194B3A699A60174BDB680D
:1008F0003B61FB68DA433B6913403B613B685A68E4
:1009000080239B03134003D03A69FB6813433B6188
:100910000E4B3A69DA607B6901337B613B681A6888
:100920007B69DA40131E00D0A8E6C046BD4606B07B
:1009300080BDC0460010024000000140000400508D
:1009400000080050000C0050001C00500004014042
:1009500080B582B000AF786008001100BB1C021C9B
:100960001A807B1C0A1C1A707B1C1B78002B04D07D
:10097000BB1C1A887B689A6103E0BB1C1A887B68E1
:100980009A62C046BD4602B080BD80B582B000AF5D
:1009900078600A00BB1C1A807B685A69BB1C1B88E4
:1009A0005A407B685A61C046BD4602B080BD000017
:1009B00080B586B000AF786000233B617B681B6820
:1009C0000122134000D187E0C04BDB680C221340AA
:1009D000082B0ED0BD4BDB680C2213400C2B16D11C
:1009E000BA4BDA6880235B021A4080235B029A428A
:1009F0000DD1B64B1A6880239B02134000D16AE0E8
:100A00007B685B68002B66D1012300F069FB7B6883
:100A10005A6880235B029A4207D1AC4BAB4A1268FA
:100A2000802149020A431A6027E07B685A68A023A4
:100A3000DB029A420ED1A54BA44A12688021C9025A
:100A40000A431A60A14BA14A1268802149020A4355
:100A50001A6012E09D4B9D4A12689D490A401A6037
:100A60009A4B1A6880235B021340FB60FB68974B2C
:100A7000964A126897490A401A607B685B68002BA7
:100A800014D0FFF76BFC03003B6108E0FFF766FC46
:100A900002003B69D31A642B01D9032320E38B4B5B
:100AA0001A6880239B021340F0D015E0FFF756FC34
:100AB00003003B6108E0FFF751FC02003B69D31AD9
:100AC000642B01D903230BE3804B1A6880239B021C
:100AD0001340F0D100E0C0467B681B68022213403F
:100AE00000D16CE0794BDB680C221340042B0BD057
:100AF000764BDB680C2213400C2B1BD1734BDA684E
:100B000080235B02134015D1704B1B6804221340F5
:100B100005D07B68DB68012B01D00123E0E26B4A42
:100B20006A4B5B686C4919407B681B691B020B436D
:100B3000536044E07B68DB68002B27D0634A634B3B
:100B40001B6809218B4319007B68DB680B4313602A
:100B5000FFF704FC03003B6108E0FFF7FFFB020026
:100B60003B69D31A022B01D90323B9E2574B1B6807
:100B700004221340F1D0554A544B5B685649194042
:100B80007B681B691B020B43536018E04F4B4F4AB5
:100B9000126801218A431A60FFF7E0FB03003B6102
:100BA00008E0FFF7DBFB02003B69D31A022B01D9F7
:100BB000032395E2454B1B6804221340F1D17B6867
:100BC0001B681022134000D1C2E0404BDB680C22AE
:100BD000134062D13D4B1A6880239B00134005D01F
:100BE0007B68DB69002B01D1012379E27B685A6ABB
:100BF000364B5968E0231B020B409A421CD97B6894
:100C00005B6A180000F044FC031E01D0012367E278
:100C10002E4A2E4B5B68314919407B685B6A0B4357
:100C200053602A4A294B5B681B02190A7B681B6ABE
:100C30001B060B4353601BE0244A244B5B68274987
:100C400019407B685B6A0B435360204A1F4B5B680B
:100C50001B02190A7B681B6A1B060B4353607B68E7
:100C60005B6A180000F014FC031E01D0012337E278
:100C70007B685B6A5B0B0133802212029A40134B44
:100C8000DB681B090F210B401549CB5CDA40154B83
:100C90001A600320FFF738FB5AE07B68DB69002B02
:100CA0003CD00A4B094A1268802149000A431A6065
:100CB000FFF754FB03003B6116E0FFF74FFB020018
:100CC0003B69D31A022B0FD9032309E2001002401B
:100CD000FFFFFEFFFFFFFBFFFFE0FFFFFF1FFFFF28
:100CE00044A000080C000020C74B1A6880239B001A
:100CF0001340E2D0C44AC44B5B68C44919407B68C6
:100D00005B6A0B435360C04ABF4B5B681B02190A06
:100D10007B681B6A1B060B43536019E0BA4BBA4A47
:100D20001268BB490A401A60FFF718FB03003B61D9
:100D300008E0FFF713FB02003B69D31A022B01D92D
:100D40000323CDE1B04B1A6880239B001340F0D100
:100D50007B681B680822134036D07B685B69002BD8
:100D600019D0A94BA84A126D01210A431A65FFF751
:100D7000F5FA03003B6108E0FFF7F0FA02003B6977
:100D8000D31A022B01D90323AAE19F4B1B6D022228
:100D90001340F1D018E09C4B9B4A126D01218A430D
:100DA0001A65FFF7DBFA03003B6108E0FFF7D6FAAC
:100DB00002003B69D31A022B01D9032390E1924B25
:100DC0001B6D02221340F1D17B681B680422134083
:100DD00000D1AFE01723FB1800221A708A4B9A6BE0
:100DE00080235B0513400AD1874B874A926B802191
:100DF00049050A439A631723FB1801221A70854B91
:100E00001A6880235B0013401AD1824B814A126812
:100E1000802149000A431A60FFF7A0FA03003B61F2
:100E200008E0FFF79BFA02003B69D31A642B01D953
:100E3000032355E1774B1A6880235B001340F0D001
:100E40007B689A6880235B009A4207D16E4B6E4A9A
:100E5000126D802149000A431A6531E07B689B6866
:100E6000002B0CD1684B684A126D69490A401A651B
:100E7000654B654A126D68490A401A6520E07B6837
:100E80009A68A023DB009A420ED15F4B5E4A126D36
:100E90008021C9000A431A655B4B5B4A126D8021B1
:100EA00049000A431A650BE0574B574A126D5849DF
:100EB0000A401A65544B544A126D57490A401A6544
:100EC0007B689B68002B15D0FFF748FA03003B6155
:100ED00009E0FFF743FA02003B69D31A4F4A9342F5
:100EE00001D90323FCE0484B1A6D80239B0013407B
:100EF000EFD014E0FFF732FA03003B6109E0FFF79F
:100F00002DFA02003B69D31A444A934201D90323C4
:100F1000E6E03D4B1A6D80239B001340EFD1172371
:100F2000FB181B78012B05D1374B374A926B3C4994
:100F30000A409A637B681B682022134049D07B6873
:100F40009B69002B26D0304B2F4A926801210A431F
:100F50009A602D4B2C4A526B01210A435A63314B44
:100F6000304A126A802189010A431A62FFF7F6F9B2
:100F700003003B6108E0FFF7F1F902003B69D31A77
:100F8000022B01D90323ABE01F4B9B6802221340C5
:100F9000F1D01EE01C4B1C4A926801218A439A60E2
:100FA000204B204A126A20490A401A62FFF7D6F9FC
:100FB00003003B6108E0FFF7D1F902003B69D31A57
:100FC000022B01D903238BE00F4B9B6802221340B5
:100FD000F1D17B689B6A002B00D180E00A4BDB6873
:100FE0000C2213400C2B00D177E07B689B6A022B0C
:100FF00058D1054B044A12680C490A401A60FFF7A1
:10100000ADF903003B611CE000100240FF1FFFFF31
:10101000FFFEFFFF00700040FFFBFFFF8813000092
:10102000FFFFFFEF00000140FFDFFFFFFFFFFFFEBC
:10103000FFF794F902003B69D31A022B01D903236D
:101040004EE0294B1A6880239B041340F0D1264AB6
:10105000254BDB68254919407B68D86A7B681B6B88
:1010600018437B685B6B03430B43D3601E4B1E4AE4
:101070001268802149040A431A60FFF76FF90300E0
:101080003B6108E0FFF76AF902003B69D31A022BC3
:1010900001D9032324E0144B1A6880239B041340D6
:1010A000F0D01CE0104B104A126811490A401A6037
:1010B000FFF754F903003B6108E0FFF74FF9020026
:1010C0003B69D31A022B01D9032309E0064B1A68A6
:1010D00080239B041340F0D101E0012300E00023B2
:1010E0001800BD4606B080BD00100240FFFF02FFA1
:1010F000FFFFFFFE80B584B000AF78603960002349
:10110000FB60824B1B6801221A403B689A4211D255
:101110007E4B7E4A126801218A4311003A680A43D5
:101120001A607A4B1B6801221A403B689A4201D030
:101130000123E6E07B681B680222134009D0744A51
:10114000734BDB68F0218B4319007B689B680B4372
:10115000D3607B681B680122134000D189E07B6863
:101160005B68022B07D16A4B1A6880239B021340ED
:1011700020D10123C5E07B685B68032B07D1644B5A
:101180001A6880239B04134014D10123B9E07B68C3
:101190005B68012B06D15E4B1B680422134009D10A
:1011A0000123AEE05A4B1A6880239B00134001D103
:1011B0000123A6E0564A564BDB6803218B431900F6
:1011C0007B685B680B43D360FFF7C8F80300FB60E4
:1011D0007B685B68022B11D109E0FFF7BFF80200C2
:1011E000FB68D31A4B4A934201D9032389E0484B49
:1011F000DB680C221340082BEFD13AE07B685B6878
:10120000032B11D109E0FFF7A9F80200FB68D31AFC
:10121000404A934201D9032373E03D4BDB680C2223
:1012200013400C2BEFD124E07B685B68012B1BD1B2
:1012300009E0FFF793F80200FB68D31A354A93429E
:1012400001D903235DE0324BDB680C221340042BF1
:10125000EFD10EE0FFF782F80200FB68D31A2D4AA7
:10126000934201D903234CE0294BDB680C22134045
:10127000F0D1264B1B6801221A403B689A4211D9D3
:10128000224B224A126801218A4311003A680A431C
:101290001A601E4B1B6801221A403B689A4201D01B
:1012A00001232EE07B681B680422134008D0184AF3
:1012B000174BDB68184919407B68DB680B43D36028
:1012C0007B681B680822134009D0114A104BDB6869
:1012D000124919407B681B69DB000B43D36000F0A7
:1012E00023F801000A4BDB681B090F2213400C4A4C
:1012F000D35C0A00DA400B4B1A600320FFF704F8B6
:1013000000231800BD4604B080BDC0460020024046
:101310000010024088130000FFF8FFFFFFC7FFFF27
:1013200044A000080C00002080B586B000AF002368
:10133000FB600023BB6000237B6000237B610023F4
:101340003B6000233B61324BDB68FB60FB680C2297
:101350001340082B0ED00C2B0FD0042B45D12C4B57
:101360001B681022134002D02A4B3B614BE02A4BF2
:101370003B6148E0294B3B6145E0FB689B0C0F2239
:101380001340274AD35CBB60FB689B0D03221340CC
:1013900001337B601E4BDA6880235B02134009D067
:1013A000BB681E4A53437968180002F05BFE0300D5
:1013B0007B6117E0164B1B681022134009D0BB68F5
:1013C000144A53437968180002F04CFE03007B6115
:1013D00008E0BB68104A53437968180002F042FEE7
:1013E00003007B617B693B610DE0094B5B685B0B34
:1013F000072213403B603B680133802212029A406F
:1014000013003B61C0463B691800BD4606B080BD75
:101410000010024000093D000024F40000127A0090
:101420005CA0000880B500AF024B1B681800BD46E9
:1014300080BDC0460C00002080B500AFFFF7F2FF72
:101440000100064BDB681B0A07221340044AD35CE9
:10145000D9400B001800BD4680BDC04600100240B8
:1014600054A0000880B500AFFFF7DCFF0100064B79
:10147000DB68DB0A07221340044AD35CD9400B0027
:101480001800BD4680BDC0460010024054A00008B0
:1014900080B584B000AF78600023FB600023BB60A0
:1014A000234BDB68F02213402BD1214B9A6B802316
:1014B0005B05134006D01F4B1A68C0235B01134025
:1014C000FB6012E01A4B1A4A926B802149050A43CD
:1014D0009A63184B1A68C0235B011340FB60144BDE
:1014E000134A926B14490A409A63FA68C0235B015D
:1014F0009A4206D17A68C0231B029A4201D1012385
:10150000BB600E4B0D4A126801218A431100BA6874
:101510000A431A60094B1B6801221A40BB689A42B1
:1015200001D0012300E000231800BD4604B080BDB7
:101530000010024000700040FFFFFFEF002002405B
:1015400080B58AB000AF78600023FB610023BB61E7
:1015500000237B6200237B6100233B610023FB604F
:1015600000233B627B68082B00D158E109D8022B8D
:1015700000D1EBE0042B00D119E1012B00D1B4E044
:101580009BE1202B0BD003D8102B00D16FE194E10D
:10159000402B57D080221201934200D08DE1BB4BEB
:1015A0001B6DFB61B94B1A6DC0239B0213407B611D
:1015B0007A6980235B029A4208D1FA6980239B00F2
:1015C000134003D080231B027B623AE07A698023B8
:1015D0009B029A4206D1FB690222134002D0AC4B17
:1015E0007B622EE07A69C0239B029A4226D1A74BE8
:1015F0001A6880239B02134020D0A44B1A68C02392
:101600009B031340BB61BB698022920393420BD0C2
:10161000C0229203934204D080225203934206D008
:1016200008E09C4B7B6208E09B4B7B6205E09B4B98
:101630007B6202E09A4B7B62C04602E000237B6241
:101640003BE13AE1914BDA6C8023DB0413407B6190
:101650007B69002B38D18D4B1A6880239B04134083
:1016600032D08A4BDA68F0239B0313403B61874BEF
:10167000DA68C0231B041340FB603B699B0C894A5A
:10168000D35C3B61FB689B0D0133FB607F4BDA68E9
:1016900080235B0213400AD17C4B1B68102213404D
:1016A00002D07F4B3B6204E07F4B3B6201E07F4B0B
:1016B0003B623B6A3A6953433B62F968386A02F01D
:1016C000D1FC03007B620FE07A698023DB049A423D
:1016D00007D16E4B9B680222134002D0744B7B6291
:1016E00002E000237B62E8E0E7E0684BDB6C03226A
:1016F00013407B617B69002B04D1FFF7B3FE03002D
:101700007B62DAE07B69022B07D1604B1B68042205
:10171000134002D0644B7B6217E07B69012B04D13C
:10172000FFF702FE03007B62C7E07B69032B09D150
:10173000564B1A6D80239B00134003D080231B025D
:101740007B6202E000237B62B7E0B6E04F4BDB6CCC
:101750000C2213407B617B69002B04D1FFF76CFEE8
:1017600003007B62A9E07B69082B07D1474B1B680C
:101770000422134002D04C4B7B6217E07B69042BA0
:1017800004D1FFF7D1FD03007B6296E07B690C2B4F
:1017900009D13E4B1A6D80239B00134003D0802358
:1017A0001B027B6202E000237B6286E085E0374B10
:1017B000DA6CC0231B0113407B617B69002B04D1D1
:1017C000FFF73AFE03007B6277E07A6980231B0112
:1017D0009A4207D12D4B1B680422134002D0324B92
:1017E0007B621BE07A698023DB009A4204D1FFF719
:1017F0009BFD03007B6260E07A69C0231B019A4273
:1018000009D1224B1A6D80239B00134003D0802303
:101810001B027B6202E000237B624EE04DE01B4B2B
:10182000DA6CC0239B0113407B617B69002B04D1E0
:10183000FFF702FE03007B623FE07A6980239B0191
:101840009A4207D1114B1B680422134002D0164B59
:101850007B6232E07A6980235B019A4204D1FFF710
:1018600063FD03007B6228E000237B6225E0074BD9
:101870009A6B8023DB031A408023DB039A4219D141
:10188000FFF7DAFD03007B6216E0C046001002405D
:101890008890000020A1070040420F0080841E00B5
:1018A00000093D005CA000080024F40000127A004A
:1018B000006CDC0200237B62C0467B6A1800BD46D8
:1018C0000AB080BD80B582B000AF78607B68002B25
:1018D00001D1012347E07B6869229B5CDBB2002BCE
:1018E00007D17B686822002199547B68180002F0B8
:1018F0003BFB7B686922242199547B681B687A68CA
:101900001268126801218A431A607B685B6A002BA7
:1019100003D07B68180000F069FD7B68180000F0B8
:1019200035FA0300012B01D101231CE07B681B6801
:101930007A68126852680E490A405A607B681B68D0
:101940007A68126892682A218A439A607B681B68C9
:101950007A681268126801210A431A607B681800CD
:1019600000F0F0FD03001800BD4602B080BDC04687
:10197000FFB7FFFF80B584B000AFF860B960BB1D52
:101980001A80FB6869229B5CDBB2202B45D1BB68C7
:10199000002B03D0BB1D1B88002B01D101233DE090
:1019A000FB689A6880235B019A4209D1FB681B6936
:1019B000002B05D1BB680122134001D001232DE08B
:1019C000FB6868229B5C012B01D1022326E0FB68A7
:1019D000682201219954FB68BA68DA64FB68BA1D71
:1019E000502112885A52FB68BA1D522112885A524D
:1019F000FB680022DA66FB68692221219954FB68A2
:101A0000682200219954FB681B68FA681268126802
:101A100080210A431A60002300E002231800BD461B
:101A200004B080BD80B584B000AFF860B960BB1D64
:101A30001A80FB686A229B5CDBB2202B00D087E017
:101A4000BB68002B03D0BB1D1B88002B01D10123D9
:101A50007FE0FB689A6880235B019A4209D1FB68AA
:101A60001B69002B05D1BB680122134001D0012363
:101A70006FE0FB6868229B5C012B01D1022368E0C8
:101A8000FB68682201219954FB68BA685A65FB68B3
:101A9000BA1D582112885A52FB68BA1D5A21128861
:101AA0005A52FB689A6880235B019A420DD1FB6809
:101AB0001B69002B04D1FB685C222849995229E05C
:101AC000FB685C22FF21995224E0FB689B68002B95
:101AD0000DD1FB681B69002B04D1FB685C22FF2140
:101AE000995217E0FB685C227F21995212E0FB6853
:101AF0009A6880235B059A420CD1FB681B69002B16
:101B000004D1FB685C227F21995203E0FB685C22D0
:101B10003F219952FB680022DA66FB686A22222183
:101B20009954FB68682200219954FB681B68FA6885
:101B30001268926801210A439A60FB681B68FA6880
:101B400012681268902149000A431A60002300E0DD
:101B500002231800BD4604B080BDC046FF0100004E
:101B600080B586B000AF78607B681B68DB697B61FD
:101B70007B681B681B683B617B690F221340FB601D
:101B8000FB68002B0CD17B692022134008D03B69F5
:101B90002022134004D07B68180000F00DFEEFE017
:101BA0007B681B689B68BB60FB68002B00D1AFE0C3
:101BB000BB680122134005D13A6990235B001340B2
:101BC00000D1A5E07B69012213400ED03A69802341
:101BD0005B00134009D07B681B6801221A627B6896
:101BE000DB6E01221A437B68DA667B6902221340AE
:101BF0000DD0BB680122134009D07B681B6802220C
:101C00001A627B68DB6E04221A437B68DA667B69A2
:101C1000042213400DD0BB680122134009D07B6819
:101C20001B6804221A627B68DB6E02221A437B68FF
:101C3000DA667B690822134011D03B6920221340E9
:101C400003D1BB680122134009D07B681B680822BE
:101C50001A627B68DB6E08221A437B68DA667B684F
:101C6000DB6E002B00D18AE07B692022134007D075
:101C70003B692022134003D07B68180000F09CFDD4
:101C80007B68DB6E0822134005D17B681B689B686C
:101C90004022134032D07B68180000F0E9FC7B68DA
:101CA0001B689B684022134023D07B681B687A68BE
:101CB0001268926840218A439A607B685B6E002BB1
:101CC00012D07B685B6E304A9A637B685B6E18004B
:101CD000FEF744FC031E19D07B685B6E9A6B7B6831
:101CE0005B6E1800904711E07B68180002F00AF95B
:101CF0000CE07B68180002F005F907E07B6818002B
:101D000002F000F97B680022DA6638E0C04636E06F
:101D10007A6980235B03134016D0BA688023DB0303
:101D2000134011D07B681B68802252031A627B68C3
:101D30006922202199547B686A22202199547B686A
:101D4000180000F0B3FD1BE07B698022134008D02F
:101D50003B698022134004D07B68180000F0BDFC72
:101D60000EE07B69402213400AD03B6940221340B9
:101D700006D07B68180000F005FDC04600E0C046B4
:101D8000BD4606B080BDC046AD260008B0B58CB0DB
:101D900000AFF8610023FB62132318229446BC4471
:101DA000634410221A700C2318229446BC446344E6
:101DB00000221A80102318229446BC446344002257
:101DC0001A800F2318229446BC44634400221A70E0
:101DD000FB699A68FB691B691A43FB695B691A43D3
:101DE000FB69DB691343FB62FB691B68FA691268D4
:101DF0001268C5491140FA6A0A431A60FB691B68F8
:101E0000FA6912685268C1491140FA69D2680A43F6
:101E10005A60FB699B69FB62FB691B68BC4A934281
:101E200004D0FB691B6AFA6A1343FB62FB691B68F7
:101E3000FA6912689268B7491140FA6A0A439A60CF
:101E4000FB691B68B44A934234D1B44BDB6C032268
:101E50001340012B15D004D3022B0AD0032B18D02A
:101E60001FE0132318229446BC44634401221A70D5
:101E7000A2E0132318229446BC44634402221A7041
:101E80009AE0132318229446BC44634404221A7037
:101E900092E0132318229446BC44634408221A702B
:101EA0008AE0132318229446BC44634410221A701B
:101EB000C04681E0FB691B68994A934237D1974B32
:101EC000DB6C0C221340042B18D002D8002B05D059
:101ED00024E0082B0AD00C2B18D01FE01323182263
:101EE0009446BC44634400221A7065E01323182210
:101EF0009446BC44634402221A705DE01323182206
:101F00009446BC44634404221A7055E013231822FB
:101F10009446BC44634408221A704DE013231822EF
:101F20009446BC44634410221A70C04644E0FB69E6
:101F30001B68774A934240D1784BDA6CC0231B016F
:101F400013408022D20093421FD08022D2009342BD
:101F500002D8002B09D028E08022120193420CD035
:101F6000C0221201934218D01FE013231822944676
:101F7000BC44634400221A701EE0132318229446C6
:101F8000BC44634402221A7016E0132318229446BC
:101F9000BC44634404221A700EE0132318229446B2
:101FA000BC44634408221A7006E0132318229446A6
:101FB000BC44634410221A70C0460220FFF7C0FAE6
:101FC00003003B62FB691B68514A934200D085E0E5
:101FD0000023FB62132318229446BC4463441B78FD
:101FE000022B0DD002DC002B05D01DE0042B12D0FB
:101FF000082B15D018E0FFF71FFA0300FB621BE067
:10200000464B1B681022134002D0464BFB6213E084
:10201000454BFB6210E0FFF787F90300FB620BE022
:1020200080231B02FB6207E00F2318229446BC4466
:10203000634401221A70C046FB6A002B00D1BFE145
:10204000FB695A6813005B009A18FB6A9A4205D82C
:10205000FB695B681A03FB6A9A4207D20F231822B6
:102060009446BC44634401221A70A9E1FB6A3B61B7
:1020700000237B6139697A690B001B0E1000050291
:102080001D430B001C02FB695B685B08BB600023FF
:10209000FB60B868F96800196941FB695B683B60DF
:1020A00000237B603A687B6802F068F803000C004C
:1020B000FB62FB6A1D4A934208D9FB6A1C4A9342A1
:1020C00004D8FB691B68FA6ADA6079E10F231822E9
:1020D0009446BC44634401221A7071E1FB69DA69D9
:1020E00080231B029A4200D0E3E013231822944677
:1020F000BC4463441B78082B00D9A2E09A000D4B26
:10210000D3181B689F46C046F369FFEFFFCFFFFF60
:1021100000480040FFF4FFFF00380140001002407B
:102120000044004000093D000024F400FF020000CC
:10213000FFFF0F003C9F00083B6A5A00FB695B6889
:102140005B08D218FB695B681900100001F08AFF78
:1021500003001A00102318218C46BC4463441A80E3
:1021600077E0FFF77FF903005A00FB695B685B08C3
:10217000D218FB695B681900100001F073FF0300BF
:102180001A00102318218C46BC4463441A8060E076
:10219000904B1B681022134013D0FB695B685B08EF
:1021A0008D4A9A18FB695B681900100001F05AFF0C
:1021B00003001A00102318218C46BC4463441A8083
:1021C00047E0FB695B685B08844A9A18FB695B68B7
:1021D0001900100001F046FF03001A001023182117
:1021E0008C46BC4463441A8033E0FFF79DF803003B
:1021F0005A00FB695B685B08D218FB695B681900D1
:10220000100001F02FFF03001A00102318218C4644
:10221000BC4463441A801CE0FB695B685B08802255
:1022200052029A18FB695B681900100001F01AFF4E
:1022300003001A00102318218C46BC4463441A8002
:1022400007E00F2318229446BC44634401221A700D
:10225000C0460C2318229446BC4463441022182123
:102260008C46BC44624412880F218A431A80102392
:1022700018229446BC4463441B885B109BB207221F
:10228000134099B20C2318229446BC4463440C2298
:1022900018208446BC44624412880A431A80FB69B1
:1022A0001B680C2218218C46BC4462441288DA60F8
:1022B00086E0132318229446BC4463441B78082B01
:1022C00076D89A00464BD3181B689F46FB691C685A
:1022D000FFF7B2F80200FB695B685B08D218FB6984
:1022E0005B681900100001F0BDFE03009BB2E360C3
:1022F00066E0FB691C68FFF7B5F80200FB695B68E4
:102300005B08D218FB695B681900100001F0AAFE97
:1023100003009BB2E36053E02E4B1B681022134076
:1023200010D0FB691C68FB695B685B082D4A9A1832
:10233000FB695B681900100001F094FE03009BB27A
:10234000E3603DE0FB691C68FB695B685B08264A4B
:102350009A18FB695B681900100001F083FE030006
:102360009BB2E3602CE0FB691C68FEF7DDFF020016
:10237000FB695B685B08D218FB695B681900100099
:1023800001F070FE03009BB2E36019E0FB691C687A
:10239000FB695B685B08802212029A18FB695B6824
:1023A0001900100001F05EFE03009BB2E36007E03D
:1023B0000F2318229446BC44634401221A70C0467D
:1023C0000F2318229446BC4463441B781800BD4672
:1023D0000CB0B0BD0010024000127A000048E801C5
:1023E000609F000800093D000024F40080B582B021
:1023F00000AF78607B685B6A012213400AD07B687B
:102400001B687A6812685268454911407A68926A76
:102410000A435A607B685B6A022213400AD07B68D9
:102420001B687A68126852683E4911407A68D26A1D
:102430000A435A607B685B6A042213400AD07B68B7
:102440001B687A6812685268374911407A68126BC3
:102450000A435A607B685B6A082213400AD07B6893
:102460001B687A6812685268304911407A68526B6A
:102470000A435A607B685B6A102213400AD07B686B
:102480001B687A6812689268294911407A68926BD1
:102490000A439A607B685B6A202213400AD07B68FB
:1024A0001B687A6812689268224911407A68D26B78
:1024B0000A439A607B685B6A402213401BD07B68AA
:1024C0001B687A68126852681B4911407A68126C5E
:1024D0000A435A607B681A6C80235B039A420AD1D4
:1024E0007B681B687A6812685268144911407A68E0
:1024F000526C0A435A607B685B6A802213400AD0A0
:102500007B681B687A68126852680D4911407A68C6
:10251000926C0A435A60C046BD4602B080BDC046B8
:10252000FFFFFDFFFFFFFEFFFFFFFBFFFF7FFFFF42
:10253000FFEFFFFFFFDFFFFFFFFFEFFFFFFF9FFF4B
:10254000FFFFF7FF80B586B002AF78600023FB6025
:102550007B680022DA66FDF701FF0300FB607B6801
:102560001B681B6808221340082B0DD1FA688023D2
:1025700099037868174B00931300002200F02CF8A1
:10258000031E01D0032321E07B681B681B68042223
:102590001340042B0DD1FA688023D90378680D4BC2
:1025A00000931300002200F017F8031E01D003234C
:1025B0000CE07B686922202199547B686A222021E3
:1025C00099547B6868220021995400231800BD4665
:1025D00004B080BDFFFFFF0180B584B000AFF8609C
:1025E000B9603B60FB1D1A702BE0BB69013328D03A
:1025F000BB69002B07D0FDF7B1FE02003B68D21A81
:10260000BB699A421DD9FB681B68FA681268126898
:1026100016490A401A60FB681B68FA6812689268DB
:1026200001218A439A60FB68692220219954FB6842
:102630006A2220219954FB686822002199540323BF
:102640000FE0FB681B68DB69BA681A40BB68D31AE5
:102650005A425341DBB21A00FB1D1B789A42C4D088
:1026600000231800BD4604B080BDC0465FFEFFFFDA
:1026700080B582B000AF78607B681B687A681268AA
:10268000126809490A401A607B681B687A681268F8
:10269000926801218A439A607B686A2220219954BA
:1026A000C046BD4602B080BDDFFEFFFF80B584B0EE
:1026B00000AF78607B689B6AFB60FB685A22002150
:1026C0009952FB68522200219952FB68180001F0D0
:1026D00019FCC046BD4604B080BD80B584B000AFD3
:1026E00078607B6869229B5CDBB2212B45D17B68DB
:1026F00052229B5A9BB2002B11D17B681B687A68CF
:102700001268126880218A431A607B681B687A68A5
:102710001268126840210A431A6000232EE07B6889
:102720009A6880235B019A4213D17B681B69002B56
:102730000FD17B68DB6CFB607B681B68FA681288D2
:10274000D205D20D9A627B68DB6C9A1C7B68DA64D6
:1027500008E07B681B687A68D26C501C7968C86492
:1027600012789A627B6852229B5A9BB2013B99B2C3
:102770007B6852229952002300E002231800BD46D4
:1027800004B080BD80B582B000AF78607B681B6804
:102790007A681268126840218A431A607B6869224D
:1027A000202199547B68180001F090FB0023180049
:1027B000BD4602B080BD000080B584B000AF786037
:1027C0000E23FB187A685C21525A1A807B686A22B1
:1027D0009B5CDBB2222B5AD17B681B685A6A0C23A4
:1027E000FB181A807B689A6880235B019A4216D195
:1027F0007B681B69002B12D17B685B6DBB600C236F
:10280000FB180E22BA181B88128813409AB2BB68B4
:102810001A807B685B6D9A1C7B685A650FE07B6849
:102820005B6D591C7A6851650C22BA181288D2B2B5
:102830000E2179180988C9B20A40D2B21A707B6891
:102840005A229B5A9BB2013B9BB27A685A21181CB0
:102850005052002B19D17B681B687A681268126885
:1028600011490A401A607B681B687A68126892688E
:1028700001218A439A607B686A22202199547B68EF
:10288000180001F031FB00230AE0002308E07B6818
:102890001B687A681268926908210A439A610223C8
:1028A0001800BD4604B080BDDFFEFFFF80B582B0DA
:1028B00000AF7860C046BD4602B080BD80B582B032
:1028C00000AF7860FEE7000080B584B000AF7860AC
:1028D000144B1B68002B02D1124B134A1A60114B88
:1028E0001B68FB607B680333032293437B600D4BC3
:1028F0001A687B68D2180D4B9A4207D901F048FD3F
:1029000003000C221A6001235B4206E0054B1A68A3
:102910007B68D218034B1A60FB681800BD4604B0F0
:1029200080BDC046240A00202C190020001C002075
:1029300080B582B000AF786039607B6801221A6090
:102940003B68034A1A60C046BD4602B080BDC0461F
:10295000040000200FB480B582B000AF1423FB1830
:102960003B603B683A690C48802101F00FFE030090
:102970007B607B68002B07DD7A68074B110018002D
:1029800000F00CF803007B607B681800BD4602B0C5
:1029900080BC08BC04B018472C0A002080B582B067
:1029A00000AF7860396001235B421800BD4602B079
:1029B00080BD80B500AF00F073F8C046BD4680BD55
:1029C00080B500AF00F0AAF8C046BD4680BD00004B
:1029D00080B582B000AF78603960254B1800FFF7F2
:1029E000B9FF7B681A68234B11001800FFF7B2FF8C
:1029F0007B685A68204B11001800FFF7ABFF7B681B
:102A00009A681E4B11001800FFF7A4FF7B68DA6874
:102A10001B4B11001800FFF79DFF7B681A69194BCB
:102A200011001800FFF796FF7B685A69164B1100DA
:102A30001800FFF78FFF7B689A69144B110018008C
:102A4000FFF788FF7B68DA69114B11001800FFF768
:102A500081FF104B1800FFF77DFF3A680E4B110005
:102A60001800FFF777FFC046BD4602B080BDC046E4
:102A7000849F0008949F0008A49F0008B49F00084A
:102A8000C49F0008D49F0008E49F0008F49F00083A
:102A900004A0000814A000081CA00008FEE7000025
:102AA00080B500AF174B174A1268802149000A43CE
:102AB0001A60144B134AD26813490A40DA60114B6A
:102AC000104A126811490A401A600E4B0D4A92686A
:102AD00001218A439A600B4B0A4A12680C490A404A
:102AE0001A60084B074AD2680A490A40DA60054B67
:102AF00000221A61084B802212059A60C046BD462A
:102B000080BDC046001002400C40FF88F6FFF6FE74
:102B1000FFFFFBFFFFFF02FF00ED00E080B586B086
:102B200000AF00237B6100233B610023FB60002397
:102B3000BB6000237B603E4BDB680C2213407B6153
:102B40007B69042B16D002D8002B05D050E0082B4F
:102B500014D00C2B16D04BE0354B5B685B0B072277
:102B600013407B607B680133802212029A40314B14
:102B70001A604BE02F4B304A1A6047E02D4B2F4A2A
:102B80001A6043E02A4BDA68F0239B0313403B6151
:102B9000274BDA68C0231B041340FB603B699B0C86
:102BA000274AD35C3B61FB689B0D0133FB60204BE4
:102BB000DA6880235B021340BB60BB68002B0BD13B
:102BC0003B691D4A5343F968180001F04BFA0300B2
:102BD0001A00184B1A6019E03B69184A5343F96808
:102BE000180001F03FFA03001A00124B1A600DE0C2
:102BF0000F4B5B685B0B072213407B607B680133E4
:102C0000802212029A400B4B1A60C046084BDB68C8
:102C10001B090F2213400B4AD35C7B61054B1A68DA
:102C20007B69DA40034B1A60C046BD4606B080BDE2
:102C3000001002400C0000200024F40000127A0072
:102C40005CA0000844A0000880B584B000AF02007A
:102C5000BB1D1A800023FB60BB1D00229B5E842BE2
:102C600006D0BB1D00229A5EFB68D3180333FB60BD
:102C7000FB681800BD4604B080BD80B500AF00F011
:102C800061FC00231800BD4680BDF0B587B002AFDF
:102C9000786039607B685C687B681D687B681B694D
:102CA0009EB27B6808229B5E1800FFF7CDFF0100F3
:102CB0003A680C23FB18019300911300320029009D
:102CC000200000F0E5FA0300012B01D0002300E012
:102CD000FB681800BD4605B0F0BD80B584B000AFFC
:102CE00078607B68FB60FB68002B01D0FB6800E02C
:102CF0000123180000F000FC00231800BD4604B0BA
:102D000080BD80B500AF00F0B5FE0300012B01D0FF
:102D100000F08AFAC046BD4680BD000080B588B08C
:102D200000AF786000237B6100F042FC3D4B1B68E4
:102D3000002B04D100F0BAF83A4B01221A607B68EC
:102D4000002B0DD008231A007B689B187B607B68E2
:102D50000722134004D07B680722934308337B602B
:102D60007B68002B56D07B682F4A934252D82F4B5A
:102D7000BB612E4B1B68FB6104E0FB69BB61FB6917
:102D80001B68FB61FB695A687B689A4203D2FB6946
:102D90001B68002BF1D1FA69254B9A423AD0BB69E6
:102DA0001B6808229B187B61FB691A68BB691A6063
:102DB000FB695A687B68D31A08225200934222D9D1
:102DC000FA697B68D318FB60FB695A687B68D21A82
:102DD000FB685A60FB697A685A60FB685B68BB6095
:102DE000124B3B6102E03B691B683B613B691B681E
:102DF0005A68BB689A42F6D33B691A68FB681A6046
:102E00003B69FA681A600B4B1A68FB695B68D21A57
:102E1000084B1A6000F0D8FB7B691800BD4608B06B
:102E200080BDC046BC160020F70B0000AC16002089
:102E3000B41600201000002080B586B000AF786086
:102E40007B683B617B68002B27D008235B423A6993
:102E5000D3183B613B69FB6000F0AAFBFB685B6831
:102E6000BB60104B7B6102E07B691B687B617B6907
:102E70001B685A68BB689A42F6D37B691A68FB687C
:102E80001A607B69FA681A60FB685A68064B1B680F
:102E9000D218054B1A6000F097FBC046BD4606B03D
:102EA00080BDC046AC1600201000002080B582B066
:102EB00000AF0E4B072293437B600D4B7A681A607C
:102EC0000B4B00225A600B4B0B4A5A60094B0022F5
:102ED0001A607B683B603B68074A5A603B68054A5A
:102EE0001A60C046BD4602B080BDC046B40A00208C
:102EF000AC160020B4160020F80B000080B582B09C
:102F000000AF78607B6808331A007B685A607B6882
:102F1000012252429A607B6808331A007B68DA60AB
:102F20007B6808331A007B681A617B6800221A608C
:102F3000C046BD4602B080BD80B582B000AF7860AB
:102F40007B6800221A61C046BD4602B080BD80B5D4
:102F500084B000AF786039607B685B68FB603B6879
:102F6000FA685A60FB689A683B689A60FB689B68DD
:102F70003A685A60FB683A689A603B687A681A61F6
:102F80007B681B685A1C7B681A60C046BD4604B04B
:102F900080BD80B584B000AF786039603B681B6845
:102FA000BB60BB68013303D17B681B69FB600CE02D
:102FB0007B680833FB6002E0FB685B68FB60FB68D2
:102FC0005B681A68BB689A42F6D9FB685A683B6826
:102FD0005A603B685B683A689A603B68FA689A6036
:102FE000FB683A685A603B687A681A617B681B68BC
:102FF0005A1C7B681A60C046BD4604B080BD80B5CF
:1030000084B000AF78607B681B69FB607B685B689D
:103010007A6892689A607B689B687A6852685A609E
:10302000FB685A687B689A4203D17B689A68FB68A0
:103030005A607B6800221A61FB681B685A1EFB6895
:103040001A60FB681B681800BD4604B080BD000014
:1030500080B584B000AFF860B9607A60FB68043B6B
:10306000FB60FB68802252041A60FB68043BFB6033
:10307000BA68FB681A60FB68043BFB60084AFB689F
:103080001A60FB68143BFB607A68FB681A60FB6897
:10309000203BFB60FB681800BD4604B080BDC04605
:1030A000A530000880B500AF034B1B68013301D089
:1030B00072B6FEE772B6FEE71400002080B500AFDE
:1030C000C046BD4680BD00000000000000000000BA
:1030D0000B4A13681868203080F30988022080F3B7
:1030E0001488BFF36F8F3FBCAE4608BC04BC62B609
:1030F0001847C046C046C046C046C046C046C04647
:10310000C0160020C046C04680B500AF0D4B0D4A2A
:103110001268FF2109040A431A600A4B094A12681F
:10312000FF2109060A431A6000F098F8064B0022B6
:103130001A60FFF7CDFFFFF7B5FF00231800BD466B
:1031400080BDC04620ED00E01400002080B500AF37
:10315000054B802252051A60BFF34F8FBFF36F8F6C
:10316000C046BD4680BDC04604ED00E080B500AF5E
:1031700072B6064B1B685A1C044B1A60BFF34F8F84
:10318000BFF36F8FC046BD4680BDC046140000200F
:1031900080B500AF094B1B68002B01D172B6FEE76A
:1031A000064B1B685A1E054B1A60044B1B68002B0C
:1031B00000D162B6C046BD4680BDC04614000020A6
:1031C000EFF3108072B670470023180080F3108868
:1031D0007047C04600000000000000000000000032
:1031E000EFF309800E4B1A6820381060F0C0444697
:1031F0004D4656465F46F0C008B572B600F024FB57
:1032000062B60CBC116808681030F0C8A046A94628
:10321000B246BB4680F309882038F0C81847C0463C
:10322000C0160020C046C04680B582B000AFFFF790
:10323000C7FF03007B6000F053FA031E03D0064B68
:10324000802252051A607B681800FFF7BFFFC04656
:10325000BD4602B080BDC04604ED00E0B0B500AF91
:10326000084C094B1A68FA239900100000F0FAFE86
:103270000300013B2360054B07221A60C046BD4690
:10328000B0BDC04614E000E00C00002010E000E0FB
:1032900090B58DB004AFF860B9603B60BB1D1A807B
:1032A000BB1D1B889B001800FFF738FD03007B61E6
:1032B0007B69002B10D05C20FFF730FD0300FB6121
:1032C000FB69002B03D0FB697A691A6306E07B690E
:1032D0001800FFF7B1FD01E00023FB61FB69002B43
:1032E00016D0BB1D1A883C68B968F86800230393A0
:1032F000FB6902937B6B01933B6B0093230000F00F
:103300000FF8FB69180000F08FF80123BB6102E0A1
:1033100001235B42BB61BB691800BD4609B090BD8B
:1033200080B586B000AFF860B9607A603B60BB6A78
:10333000186B7B689B001A00A52101F071F8BB6A2D
:103340001A6B7B6837498C4663449B00D3183B61FA
:103350003B69072293433B613B690722134001D03D
:1033600072B6FEE700237B6115E0BA687B69D3186B
:1033700000201856BA6A34217B69D3185B18021CE6
:103380001A70BA687B69D3181B785BB2002B06D021
:103390007B6901337B617B690F2BE6D900E0C04676
:1033A000BB6A4322002199543B6A062B01D90623AC
:1033B0003B62BB6A3A6ADA62BB6A3A6ADA64BB6A3F
:1033C00000221A65BB6A04331800FFF7B5FDBB6A1B
:1033D00018331800FFF7B0FDBB6ABA6A1A613B6A7E
:1033E0000722D21ABB6A9A61BB6ABA6A5A62BB6A7E
:1033F00000225A65BB6A5822002199543A68F9683C
:103400003B691800FFF724FE0200BB6A1A607B6A62
:10341000002B02D07B6ABA6A1A60C046BD4606B06D
:1034200080BDC046FFFFFF3F80B582B000AF78602F
:10343000FFF79CFE2A4B1B685A1C294B1A60294B2C
:103440001B68002B09D1274B7A681A60244B1B6834
:10345000012B10D100F05AFA0DE0234B1B68002B12
:1034600009D1204B1B68DA6A7B68DB6A9A4202D872
:103470001C4B7A681A601D4B1B685A1C1B4B1A6048
:103480001A4B1A687B685A647B68DA6A184B1B68A7
:103490009A4203D97B68DA6A154B1A607B68DA6A4C
:1034A00013009B009B189B00124A9A187B680433F8
:1034B00019001000FFF74BFDFFF76AFE0A4B1B686F
:1034C000002B08D0074B1B68DA6A7B68DB6A9A42DC
:1034D00001D2FFF73BFEC046BD4602B080BDC046EC
:1034E000C0170020C0160020CC170020DC170020D9
:1034F000C8170020C416002080B584B000AF7860E3
:103500000023FB607B68002B10D00D4B1B68002B49
:1035100001D072B6FEE700F04BF87B68002118007E
:1035200000F0C4FA00F050F80300FB60FB68002BC9
:1035300001D1FFF70BFEC046BD4604B080BDC046BA
:10354000E817002080B584B002AF13491348144B2C
:1035500001930023009300238022FFF799FE0300CC
:103560007B607B68012B0DD172B60E4B012252425B
:103570001A600D4B01221A600C4B00221A60FFF7F3
:10358000C3FD04E07B68013301D172B6FEE7C0469B
:10359000BD4602B080BDC04668A00008ED380008F6
:1035A000E4170020E0170020CC170020C4170020EB
:1035B00080B500AF034B1B685A1C024B1A60C04613
:1035C000BD4680BDE817002080B584B000AF002361
:1035D000FB600023BB603A4B1B68002B01D172B625
:1035E000FEE7FFF7C3FD364B1B685A1E344B1A60CB
:1035F000334B1B68002B5BD1324B1B68002B57D021
:103600002FE0314BDB68DB68FB60FB681833180088
:10361000FFF7F5FCFB6804331800FFF7F0FCFB68CC
:10362000DA6A2A4B1B689A4203D9FB68DA6A274B8D
:103630001A60FB68DA6A13009B009B189B00244AFF
:103640009A18FB68043319001000FFF780FCFB6830
:10365000DA6A204B1B68DB6A9A4202D31E4B0122B6
:103660001A60194B1B68002BCBD1FB68002B01D0D3
:1036700000F0DCF9194B1B687B607B68002B0FD0D6
:1036800000F02EF8031E02D0134B01221A607B6853
:10369000013B7B607B68002BF2D1104B00221A604B
:1036A0000D4B1B68002B03D00123BB60FFF74EFDC1
:1036B000FFF76EFDBB681800BD4604B080BDC04674
:1036C000E8170020C017002080170020C81700202E
:1036D000C4160020C0160020D4170020D0170020E8
:1036E00080B586B000AF00237B614C4B1B68002B7C
:1036F00000D083E04A4B1B6801333B61484B3A6979
:103700001A603B69002B17D1464B1B681B68002BC6
:1037100001D072B6FEE7434B1B68FB60424B1A6850
:10372000404B1A60404BFA681A60404B1B685A1CA9
:103730003E4B1A6000F07AF93D4B1B683A699A4299
:103740004ED3384B1B681B68002B01D1012300E0CE
:103750000023002B04D0364B012252421A603FE076
:10376000304B1B68DB68DB68BB60BB685B687B60F9
:103770003A697B689A4203D22D4B7A681A602FE02F
:10378000BB6804331800FFF73AFCBB689B6A002B48
:1037900004D0BB6818331800FFF731FCBB68DA6A45
:1037A000244B1B689A4203D9BB68DA6A214B1A6022
:1037B000BB68DA6A13009B009B189B001E4A9A188C
:1037C000BB68043319001000FFF7C1FBBB68DA6A5D
:1037D0001A4B1B68DB6A9A42B3D301237B61B0E7C3
:1037E000164B1B68DA6A144913009B009B189B0058
:1037F0005B58012B07D901237B6104E0104B1B6848
:103800005A1C0F4B1A600F4B1B68002B01D0012371
:103810007B617B691800BD4606B080BDE8170020BB
:10382000C4170020781700207C170020D81700202C
:10383000E0170020C8170020C4160020C016002082
:10384000D0170020D417002080B582B000AF224BE3
:103850001B68002B03D0214B01221A6037E01F4B5D
:1038600000221A601E4B1B687B6007E07B68002B00
:1038700001D172B6FEE77B68013B7B6019497A682B
:1038800013009B009B189B005B58002BEED07A68BE
:1038900013009B009B189B00124A9B183B603B68DF
:1038A0005B685A683B685A603B685A683B680833F3
:1038B0009A4204D13B685B685A683B685A603B682F
:1038C0005B68DA68084B1A60054B7A681A60C04674
:1038D000BD4602B080BDC046E8170020D4170020C6
:1038E000C8170020C4160020C016002080B582B082
:1038F00000AF786000F04EF8034B1B68012BF9D93C
:10390000FFF724FCF6E7C046C416002080B582B05D
:1039100000AF00237B600CE07A6813009B009B18CB
:103920009B00144A9B181800FFF7E8FA7B680133E4
:103930007B607B68062BEFD90F4B1800FFF7DEFA90
:103940000E4B1800FFF7DAFA0D4B1800FFF7D6FA06
:103950000C4B1800FFF7D2FA0B4B1800FFF7CEFA0A
:103960000A4B054A1A600A4B044A1A60C046BD4613
:1039700002B080BDC416002050170020641700203C
:103980008017002094170020AC1700207817002023
:103990007C17002080B582B000AF27E0FFF708FE5B
:1039A000164B1B685A425341DBB27B60FFF70CFE9B
:1039B0007B68002B1AD1FFF7D9FB104BDB68DB6863
:1039C0003B603B6804331800FFF719FB0C4B1B6886
:1039D0005A1E0B4B1A600B4B1B685A1E094B1A6080
:1039E000FFF7D6FB3B68180000F00EF8054B1B688C
:1039F000002BD3D1C046BD4602B080BD9417002035
:103A0000C0170020A817002080B582B000AF7860F2
:103A10007B681B6B1800FFF70FFA7B681800FFF735
:103A20000BFAC046BD4602B080BD000080B582B032
:103A300000AF0E4B1B681B68002B01D1012300E077
:103A40000023002B04D00A4B012252421A6008E0E6
:103A5000064B1B68DB68DB687B607B685A68044B3D
:103A60001A60C046BD4602B080BDC046781700202F
:103A7000E017002080B582B000AF0A4B1B68002B16
:103A800002D101237B6008E0074B1B68002B02D1A9
:103A900002237B6001E000237B607B681800BD4649
:103AA00002B080BDCC170020E817002080B584B09C
:103AB00000AF78603960214B1B68FB60204B1B68AE
:103AC00004331800FFF79BFA7B6801330BD13B6886
:103AD000002B08D01A4B1B681A1D1A4B1100180036
:103AE000FFF735FA26E0FA687B68D318BB60144B01
:103AF0001B68BA685A60BA68FB689A4209D2124BCE
:103B00001A680F4B1B68043319001000FFF741FAC5
:103B100010E00E4B1A680A4B1B68043319001000A2
:103B2000FFF737FA0A4B1B68BA689A4202D2084B71
:103B3000BA681A60C046BD4604B080BDC4170020F4
:103B4000C0160020AC1700207C170020781700203A
:103B5000E017002090B591B000AFFCF7C1FB00F07A
:103B60003FF800F09DF82C23FB18174A13CA13C323
:103B700003CA03C31823FB18144A13CA13C303CA86
:103B800003C33B1D124A13CA13C303CA03C32C2326
:103B9000FB1800211800FFF778F802000D4B1A609F
:103BA0001823FB1800211800FFF76FF802000A4BDA
:103BB0001A603B1D00211800FFF767F80200074B51
:103BC0001A60FFF75AF8FEE778A0000894A00008F2
:103BD000B0A00008FC1800202C18002000190020BC
:103BE00080B594B000AF2C4B2B4A12682B490A4089
:103BF000802109010A431A601823FB1810221A6059
:103C00001823FB180122DA611823FB1800221A621C
:103C10001823FB18A02212025A621823FB18002254
:103C20009A621823FB181800FCF7C2FE031E01D08D
:103C300000F06DF93B1D0F221A603B1D00225A60F7
:103C40003B1D00229A603B1D0022DA603B1D0022D2
:103C50001A613B1D00211800FDF74CFA031E01D02C
:103C600000F055F9FDF7DEFB0200FA239900100081
:103C700000F0F8F903001800FCF748FC0420FCF7FA
:103C800053FC01235B42002203211800FCF718FCBF
:103C9000C046BD4614B080BD00700040FFE7FFFF86
:103CA00080B588B000AF4A4B494AD26A04210A4322
:103CB000DA62474BDB6A04221340BB60BB68444BAB
:103CC000434AD26A80210A43DA62414BDB6A80228E
:103CD00013407B607B683E4B3D4AD26A01210A4318
:103CE000DA623B4BDB6A012213403B603B68A02356
:103CF000DB05002220211800FCF72AFE0C23FB180C
:103D0000802292011A600C23FB18324A5A600C235D
:103D1000FB1800229A600C23FB182F4A1900100090
:103D2000FCF7A0FC0C23FB180C221A600C23FB18D8
:103D300002225A600C23FB1800229A600C23FB1805
:103D40000322DA600C23FB1804221A610C23FA18F0
:103D5000A023DB0511001800FCF784FC0C23FB18E2
:103D600020221A600C23FB1801225A600C23FB1836
:103D700000229A600C23FB180022DA600C23FA1848
:103D8000A023DB0511001800FCF76CFC0C23FB18CA
:103D9000C022D2001A600C23FB1802225A600C23A6
:103DA000FB1800229A600C23FB180322DA600C2314
:103DB000FB1804221A610C23FA18A023DB0511005A
:103DC0001800FCF74FFCC046BD4608B080BDC04699
:103DD00000100240000021100008005080B582B0A1
:103DE00000AF7860234B244A1A60224B962292013E
:103DF0005A60204B00229A601E4B0022DA601D4B55
:103E000000221A611B4B00229A611A4B0C225A6144
:103E1000184B1800FDF756FD031E01D000F077F88F
:103E20001649144B5A221800FDF7FCFD031E01D061
:103E300000F06DF8C046124B1B78DBB2012BFAD1B3
:103E40000F4B00221A700F490A4B5A221800FDF737
:103E500091FD031E01D000F05AF8A023DB052021BC
:103E60001800FCF792FDFA239B001800FEF735FFBF
:103E7000F3E7C0463018002000380140A0180020A9
:103E8000EC1700201800002080B582B000AF7860E9
:103E9000A023DB0520211800FCF777FD4E23FF331C
:103EA0001800FEF71AFFF3E780B582B000AF786024
:103EB000A023DB0520211800FCF767FD024B18004A
:103EC000FEF70BFFF4E7C0461503000080B582B093
:103ED00000AF7860034B01221A70C046BD4602B0A5
:103EE00080BDC046EC17002080B582B000AF78607E
:103EF000034B01221A70C046BD4602B080BDC046C9
:103F0000EC17002080B582B000AF7860FEE780B586
:103F100000AFFEE780B500AF124B124A526B012191
:103F20000A435A630F4B0F4A926B802149050A439B
:103F30009A6305235B42002200211800FCF7C0FAB7
:103F400002235B42002203211800FCF7B9FA012387
:103F50005B42002203211800FCF7B2FAC046BD46BE
:103F600080BDC0460010024080B58AB000AF7860C6
:103F70002C4B2C4AD26A01210A43DA62294BDB6AB4
:103F8000012213403B613B69264B264AD26A01213C
:103F90000A43DA62234BDB6A01221340FB60FB68B1
:103FA000204B204A526B8021C9010A435A631423D3
:103FB000FB18802292001A601423FB1802225A6018
:103FC0001423FB1801229A601423FB180322DA60E1
:103FD0001423FB1804221A611423FA18A023DB050A
:103FE00011001800FCF73EFB1423FB188022D200BE
:103FF0001A601423FB1804221A611423FA18A02350
:10400000DB0511001800FCF72DFB012200211B200D
:10401000FCF756FA1B20FCF769FAC046BD460AB009
:1040200080BDC0460010024080B500AFFEE780B5FD
:1040300000AFFCF787F9FEF764FEC046BD4680BDC1
:1040400080B500AF034B1800FDF78AFDC046BD46A2
:1040500080BDC0463018002080B500AFC046BD46C8
:1040600080BD0000002243088B4274D303098B42B9
:104070005FD3030A8B4244D3030B8B4228D3030C38
:104080008B420DD3FF22090212BA030C8B4202D3DA
:104090001212090265D0030B8B4219D300E0090A02
:1040A000C30B8B4201D3CB03C01A5241830B8B420B
:1040B00001D38B03C01A5241430B8B4201D34B03F4
:1040C000C01A5241030B8B4201D30B03C01A524159
:1040D000C30A8B4201D3CB02C01A5241830A8B42DE
:1040E00001D38B02C01A5241430A8B4201D34B02C7
:1040F000C01A5241030A8B4201D30B02C01A52412B
:10410000CDD2C3098B4201D3CB01C01A52418309DE
:104110008B4201D38B01C01A524143098B4201D318
:104120004B01C01A524103098B4201D30B01C01A43
:104130005241C3088B4201D3CB00C01A52418308BD
:104140008B4201D38B00C01A524143088B4201D3EA
:104150004B00C01A5241411A00D20146524110464A
:104160007047FFE701B5002000F006F802BDC04629
:104170000029F7D076E770477047C046002B11D171
:10418000002A0FD1002900D1002802D00021C94304
:10419000081C07B4024802A14018029003BDC046A3
:1041A000D9FFFFFF03B4684601B5029800F006F896
:1041B000019B9E4602B00CBC7047C046F0B5574606
:1041C0004E464546DE46E0B5040083B00D009246FB
:1041D00099468B422FD82CD04946504600F0AEF875
:1041E00029000600200000F0A9F8331A9846203B69
:1041F0009B4600D574E053465A4693401F005346F1
:10420000424693401E00AF4229D826D05B46A41BED
:10421000BD41002B00DA79E00022002300920193D7
:1042200001235A4693400193012342469340009351
:1042300019E08242D0D900220023009201930C9B06
:10424000002B01D01C605D600098019903B03CBC5C
:1042500090469946A246AB46F0BDA342D6D900226D
:104260000023009201934346002BE8D0FB0772081D
:104270001A4346467B080EE0AB4201D1A2420CD85D
:10428000A41A9D41012024196D410021013E2418EA
:104290004D41002E06D0AB42EED9013E24196D41AE
:1042A000002EF8D15B460098019900196941002B56
:1042B00022DB2B005A46D3402A004446E2401C0031
:1042C0005B461500002B2CDB26009E4033002600A9
:1042D0004746BE403200801A994100900191AEE7F6
:1042E000424620239B1A5246DA40414613004A4672
:1042F0008A4017001F4382E7424620239B1A2A0068
:1043000046469A402300F3401343D5E74246202314
:1043100000219B1A0022009101920122DA400192B1
:1043200082E74246202326009B1ADE402F00B44637
:10433000974066463B003343C9E7C04610B50029A5
:1043400003D100F007F8203002E0081C00F002F86A
:1043500010BDC0461C2101231B04984201D3000C50
:1043600010391B0A984201D3000A08391B099842E8
:1043700001D30009043902A2105C40187047C046FE
:10438000040302020101010100000000000000001E
:10439000014B18687047C04674000020F0B5050056
:1043A0000F2A2FD90B0003439B0734D116000C00B2
:1043B0000300103E350901352D01451927681F609E
:1043C00067685F60A7689F60E7681034DF6010333C
:1043D0009D42F3D10F239E4310368519891913404E
:1043E000032B1AD91E1F0023B4080134A400CF5890
:1043F000EF500433A342FAD10324A643331D2240D5
:10440000C918ED18002A05D00023CC5CEC54013308
:104410009342FAD1F0BD0500F6E71A00F2E7C04674
:10442000F0B5830743D0541E002A3FD0CEB202001D
:10443000032502E01A00013C38D3531C16702B42AE
:10444000F8D1032C2AD9FF220A40150215432A0469
:1044500015430F2C14D927001A00103F3E090136CE
:1044600036019E19156055609560D56010329642F0
:10447000F8D10F2297431037DB191440032C0DD9C4
:104480001A00271FBE080136B6009E1920C2B2428C
:10449000FCD1032297430437DB191440002C05D0CC
:1044A000C9B21C19197001339C42FBD1F0BD140034
:1044B0000300C6E710B5830725D00378002B24D06E
:1044C0000300032102E01A78002A1AD001330B42BC
:1044D000F9D119680E4A0F4C8A188A43224206D134
:1044E000043319680A4A8A188A432242F8D01A000B
:1044F0001B78002B03D0013211780029FBD1101A50
:1045000010BD181AFCE70300E3E70020F8E7C046F7
:10451000FFFEFEFE8080808030B504009BB0180056
:10452000002A2EDB82236D469B00AB810091049113
:10453000002A11D00123013A5B4202920592EB81DD
:1045400002001E9B6946200000F030F8431C12DB7D
:104550000023009A13700CE001235B420292059243
:10456000EB8102001E9B6946200000F01FF8431CEF
:1045700004DB1BB030BD8B232360E9E78B23236072
:10458000F7E78B23012023604042F2E710B50400D7
:10459000054882B00068009313000A002100FFF76D
:1045A000BBFF02B010BDC04674000020F0B5DE466F
:1045B000454657464E46E0B5C3B00D00069114007F
:1045C0000F93099002F05EFB036818001993FFF740
:1045D00071FF1890AB891B0605D52B690793002B3B
:1045E00001D101F063F832AB25930023A34625AF38
:1045F000BB607B6014931593169332AE17931A9396
:104600000A935B461B785C46002B1CD0252B02D1FD
:1046100019E0252B03D001342378002BF9D15B4618
:10462000E51A10D05B463360BB6875605B19BB60F0
:104630007B6801337B60072B2EDC08360A9B9C4687
:10464000AC4463460A932378002B2ED0631C9B4610
:10465000002316AAD377012252429246002200215B
:104660000B92203291462032637888460020002445
:104670009446594601311A00203A582A00D9FDE2E1
:10468000D74D9200AA5897460B9B0F925B420B9313
:1046900004231C430B78EDE73A000699099803F0D0
:1046A0005DF9002809D132AEC8E7BB68002B04D001
:1046B0003A000699099803F051F9069B9B895B061D
:1046C00001D501F0CEF80A9843B03CBC904699461B
:1046D000A246AB46F0BD01220B7890462B20C9E7DD
:1046E0004B1C9B460B782A2B01D101F020FA1A00B3
:1046F0000021303A8A465946092ABCD803001100E5
:1047000050465A469A46A34683001B1814785B000D
:1047100058182100531C30391A000929F4D952467F
:1047200019008246230010005C46A4E780231C4346
:104730000B789FE78B4641461293002901D001F088
:1047400028FA10231C430F9AA30601D500F088FE17
:10475000E30601D500F080FD630601D400F07CFD86
:104760000021535E0C930432DB170D930F9201D599
:1047700000F086FE0C990D9A080016ABDB7F104303
:104780009846020001235146013100D1FFE080210B
:10479000200088430890002A00D0FCE05246002AFE
:1047A00001D000F02CFC002B01D000F004FD012012
:1047B00032AB20400E90119308D02723302128AA35
:1047C000D15416AA944648336344119353460E9A23
:1047D0000793924500DA0792002313934346002B78
:1047E00002D0079B013307930223089A1A4091468F
:1047F00002D0079B023307938423089A1A40109231
:1048000000D04DE20B9B079A9C1A002C00DC47E27B
:104810007449BA687B688846102C1FDD310010256A
:10482000464603E0103C0831102C15DD10320133F0
:104830000E604D60BA607B60072BF3DD3A0006998D
:10484000099803F08BF8002800D036E7103CBA68CE
:104850007B6832A9102CE9DCB0460E00414674603A
:104860000133A4183160BC607B60072B01DD00F0D0
:10487000A8FC16ABDB7F0836984612E28B46414611
:104880001293002901D001F080F907220F9B073312
:104890009343013294469C4462460F921A681592E3
:1048A0005B6801221693169B159D5B005B0898467A
:1048B00052424D4B2800414605F072FA002801D0C3
:1048C00000F0FDFD0122484B52422800414603F012
:1048D0006FFD002801D000F0F2FD002200231598A2
:1048E000169903F05BFD002801D001F022F816AB09
:1048F000DB7F9846129B472B01DD00F0C7FE3B4B48
:10490000119380239C430894032307930E93002361
:104910009A46139362E70022303B15001A00030009
:10492000079408002C009B46A3001C190378640020
:1049300014191A000131303A0800092AF4D90B94ED
:104940005846079C97E608231C430B7892E612937F
:1049500010231C438B46A30600D57BE1E30601D55B
:1049600000F07EFC630601D400F07AFC0F9B1A88ED
:104970000C92002204330F9300230D920C9A002115
:1049800016A8C17788465146013100D0FFE6002ABB
:1049900000D135E30894012B00D1E5E3022B00D0D0
:1049A00062E3179C0F20A146B44632AB19000C9A63
:1049B0000D9B04004D4614402C5D1E07150901395E
:1049C0002E430C701C092300340032001C43F0D12C
:1049D0000C920D9332AB5B1A119166460E93F5E67D
:1049E000C4A000086CA20008FFFFEF7F28A2000807
:1049F000129310231C438B46A30600D511E1E30656
:104A000001D500F031FC630601D400F02DFC0F9BB2
:104A10001A880C92002204330D920F930C9A0123F2
:104A2000ADE78B4641461293002901D001F092F880
:104A3000B84B1793A30600D5ABE0E30601D500F011
:104A400007FC630601D400F003FC0F9B1A880C924C
:104A5000002204330D920F93E30700D4A9E00C99D0
:104A60000D9A0B0013431A000223002A00D186E797
:104A700030201EA9087048256846401900781C435C
:104A800048707CE78B464146002901D001F066F86A
:104A9000A30601D500F0E9FDE30601D500F09BFD7A
:104AA000630601D400F097FD69460F9B098D1A68D3
:104AB0000433079211800F93A3E54B461C430B78F8
:104AC000D8E512930F9B8B461D1D1B6816A91A0073
:104AD00011930023CB77002A01D100F0FBFE53464F
:104AE000013301D100F038FE52460021119802F046
:104AF0008BFB002801D100F054FF119BC31A1A0050
:104B00000E93DB43DB171A4016ABDB7F0792984608
:104B100000230F9508949A4613935FE60F9A129319
:104B2000136828AD07936B461B7F8B462B700023C1
:104B300016A9CB77130004330F93002308949846EB
:104B4000013307930E93002311959A4613934BE676
:104B50008B4641461293002900D1F4E516ABD87775
:104B6000F1E563461C430B7884E50B786C2B01D18F
:104B700000F086FD102214437CE58B4641461293DB
:104B8000002901D000F0DEFF634B1793A30600D489
:104B900053E707220F9B07339343013294469C440B
:104BA00062460F921A685B680C920D93E30700D57A
:104BB00055E70C990D9A0800104302230200DEE627
:104BC0008B460F9930220B680C9300230D93023310
:104BD0001C431EAB1A7048325A700B0004330F93FB
:104BE0004D4B129217930C9A0223C8E601231C43E3
:104BF0000B783FE50F9B1A1D1B680B93002B00DA07
:104C000042E50B780F9235E50B78002800D031E5AE
:104C10000122203090462DE58B461293A30600D446
:104C2000EDE607220F9B07339343013294469C44E1
:104C300062460F921A685B6811001A000800104360
:104C40000C910D920123020099E68B461293A30664
:104C500000D483E607220F9B073393430132944627
:104C60009C4462460F921A685B6811001A000800A3
:104C700010430C910D920023020080E68B464146C2
:104C80001293002901D000F06DFF129B002B00D180
:104C90000BE528AD2B70002316AAD37708944EE7B6
:104CA000BC684346002B0FD016AA1F2394466344CA
:104CB0003360012373607B6801340133BC607B6027
:104CC000072B00DDB3E108364B46002B0CD01EABA2
:104CD0003360022373607B6802340133BC607B6005
:104CE000072B00DDAFE10836109B802B00D120E1BF
:104CF00053460E9A9D1A002D3CDD084A7B6891466A
:104D0000102D2CDD102221009246099C32002E002D
:104D10004D4609E038A200084CA200087CA2000819
:104D2000103E0832102E16DD50461031013315604A
:104D30005060B9607B60072BF2DD3A0006992000D5
:104D400002F00CFE002800D0B7E4103EB9687B6882
:104D500032AA102EE8DCA9460C00350016004A469F
:104D60006419013332607560BC607B60072B00DD25
:104D700051E10836089BDB0500D5B6E0119B336096
:104D80000E9B9C4673607B6864440133BC607B600F
:104D9000072B00DD9DE00836089B5B0741D50B9B88
:104DA000079A9D1A002D3CDDC44A7B689046102D61
:104DB00026DD102221009146099C32002E00069D1E
:104DC00003E0103E0832102E17DDBC481031106091
:104DD000484601335060B9607B60072BF1DD3A0033
:104DE0002900200002F0BAFD002800D065E4103E42
:104DF000B9687B6832AA102EE7DC35000C0016007B
:104E000042466419013324C6BC607B60072B08DD71
:104E10003A000699099802F0A1FD002800D04CE460
:104E2000BC680B9B07998B4200DA0B000A9A9446E8
:104E30009C4463460A93002C00D0D6E0002332AE97
:104E40007B60FFF7DEFB149B012B00DCAEE0119BC7
:104E500001343360012373607B68BC6001337B6085
:104E6000072B00DDDFE20836199A01333260189A09
:104E70009846944664447260BC607B60072B00DDFA
:104E8000DEE20836002200231598169903F080FA16
:104E9000002800D0A4E1119D149B0135013B356031
:104EA0007360E41801239C46E0444346BC607B6089
:104EB000072B00DD8BE0083621AB33601A9B9C4644
:104EC0007360434664440133BC607B60072B00DCA5
:104ED00061E73A000699099802F040FD002801D0E8
:104EE000FFF7EBFBBC6832AE56E7129B652BAADDE1
:104EF000002200231598169903F04AFA002800D1E1
:104F0000E2E06F4B01343360012373607B68BC6067
:104F100001337B60072B00DD66E308361F9B149A84
:104F2000934200DAA4E1089BDB0700D5A0E1BC684E
:104F300032E70B9B079A9D1A002D00DCD8E6614AE8
:104F40007B689146102D25DD102221009046099C9A
:104F500032004E4603E0103D0832102D17DD40466A
:104F60001031013316605060B9607B60072BF2DDB1
:104F70003A000699200002F0F1FC002801D0FFF76A
:104F80009CFB103DB9687B6832AA102DE7DCB14666
:104F90000C0016004A466419013332607560BC602B
:104FA0007B60072B00DD7EE20836A1E60123089A2C
:104FB000134200D04BE773607B68119A01330134D0
:104FC0003260BC6098467B60072B00DC73E73A00D8
:104FD0000699099802F0C2FC002801D0FFF76DFB8A
:104FE0007B68BC68984632AE66E73A000699099835
:104FF00002F0B4FC002800D120E7FFF75EFB089C1C
:10500000012B00D184E1022B29D108940023002434
:105010000C930D94C5E43A000699099802F09EFCA1
:10502000002801D0FFF749FBBC6832AEA2E63A0087
:105030000699099802F092FC002801D0FFF73DFB89
:10504000BC6832AE40E63A000699099802F086FC48
:10505000002801D0FFF731FBBC6832AE44E608946B
:10506000002300240C930D940C980D995B4632AAF2
:1050700007939146B34600E0A1464A0794464B4643
:1050800065465C1EC6080723CA08354311002A007E
:1050900003403033237028000A43EDD10C900D916A
:1050A00007995E468B4608994A461194C90700D570
:1050B0003DE132AB1B1B0E93FFF788FB6CA200088F
:1050C00068A200087CA200081F98002800DC96E275
:1050D000139A1499130090468B4200DD884643468C
:1050E000002B0CDD119B44443360434673607B68A6
:1050F000BC6001337B60072B00DDB7E30836434615
:10510000DB434246DB171340139AD31A9846002B11
:1051100000DC28E1102B01DC00F0E7FCCF4A210085
:10512000914610227B689246099D32004C464646C5
:1051300004E00832103E102E00DC04E1504610312D
:10514000013314605060B9607B60072BF1DD3A00D9
:105150000699280002F002FC002801D0FFF7ADFA02
:10516000B9687B6832AAE5E70D9B002B00D1CAE045
:105170000C9C0D9D32ABB1461E00200029000A2276
:105180000023FEF7FBFF013E303232700023200087
:1051900029000A22FEF7F2FF030004000D000B4372
:1051A000EBD1320032AB9B1A11960C940D954E4602
:1051B0000E93FFF70BFB00230E9332AB1193FFF717
:1051C00005FB3A000699099802F0C8FB002801D0B7
:1051D000FFF773FA16ABDB7FBC68984632AE60E52A
:1051E000149B5D1E002D00DC66E69C4B9946102D3D
:1051F00029DD102332009A462E0021004346099CE7
:105200004D4603E0103E0832102E17DD5046103197
:10521000013315605060B9607B60072BF2DD3A0006
:105220000699200002F09AFB002801D0FFF745FA0A
:10523000103EB9687B6832AA102EE7DCA9460C0044
:105240003500984616004B4675603360641929E6B0
:105250000F9B1A68FFF7FBFB13680793FFF782FAAF
:105260000F9B1A68FFF784FB0F9B1A68FFF7D1FBAF
:10527000199BBA683360189B9C4673607B686244D4
:1052800001331400BA607B60072B00DD02E20836B0
:10529000149B5D1E002D00DC7EE5704A7B68914604
:1052A000102D25DD102221009046099C32002E0091
:1052B0004D4603E00832103E102E15DD40461031F9
:1052C000013315605060B9607B60072BF2DD3A0056
:1052D0000699200002F042FB002801D0FFF7EDF90B
:1052E000B9687B6832AAE6E7A9460C0035001600CB
:1052F0004A466419013332607560BC607B60072BDD
:1053000000DC48E5E5E50C9B092B00D930E7089C5B
:1053100027220C9B28A930338B54012316AA9446CC
:105320000E936E33634408941193FFF74FFA302BBA
:1053300000D10BE23023023A137032AB9B1A0E936A
:105340001192FFF743FAB046A14616000C004A46F8
:1053500032604246444401337260BC607B60072B7C
:1053600000DD9CE208361F9B149A93424CDB089A9E
:10537000D20749D4149A1399D31A521A90469A42D2
:1053800000DD98464246002A0FDD1399119A8C469B
:1053900062443260424672607A6844440132BC60C2
:1053A0007A60072A00DD86E208364246D543ED17CB
:1053B00015405D1B002D00DCEEE4284A7B68914619
:1053C000102D95DD102221009046099C32002E0000
:1053D0004D4603E00832103E102E85DD4046103168
:1053E000013315605060B9607B60072BF2DD3A0035
:1053F0000699200002F0B2FA002801D0FFF75DF90B
:10540000B9687B6832AAE6E7199A3260189A94461E
:1054100072607A6864440132BC607A60072A00DDF9
:1054200030E20836A6E73A000699099802F096FAA3
:10543000002801D0FFF741F9BC687B6832AE13E564
:105440003A000699099802F089FA002801D0FFF77E
:1054500034F97B68BC68984632AE13E57CA200083C
:10546000072307329A4301339C46944463460F93C3
:10547000536812680D930C92002B01DBFFF77AF949
:105480000C980D99002342428B4111001A002D23E4
:1054900016A8C377080010430C910D92984602009D
:1054A0002C3BFFF770F93A000699099802F056FA7A
:1054B000002801D0FFF701F9BC6832AE18E4159955
:1054C000169D0A0008002B00290004F069FC002842
:1054D00000D0E6E25346013300D10DE22023129AB8
:1054E0009A430E92472A00D11CE180235B0023439C
:1054F0000893169B002B00DA21E2159A07930023EC
:1055000091461093129B662B00D1FCE1462B00D1F3
:10551000DBE00E9A0998453A13005942594120ABF5
:105520000D0003931FAB0293022323AA55441B9241
:10553000049200930195079B4A4600F0DFFB129B03
:105540001190672B00D039E2119B9846A844E307DD
:1055500000D48BE2002300224846079902F018FF8E
:10556000434600280AD1239B434507D230214046B9
:105570005A1C23921970239B9842F9D8119A9B1AAE
:1055800014930E9B472B00D1F6E0129B652B00DC99
:1055900026E2129B662B00D1F4E11F9B1393149B10
:1055A000139A1900914200DDD4E1E30700D549E2E6
:1055B000D343DB1711001A40672307920E91129311
:1055C000109B002B00D0CFE016ABDB7F984600236A
:1055D0009A46FFF703F90F9A0A99136819601300A6
:1055E00004330F93FFF70DF83A000699099802F07B
:1055F000B5F9002801D0FFF760F832AE8EE4DE4B3B
:1056000001343360012373607B68BC6001337B60CD
:10561000072B7ADC0836002807D1149B002B04D115
:10562000089BDB0701D4FFF7B7FB199B3360189B7E
:10563000191973607B68B96001337B60072B00DD4B
:10564000F2E132000832002800DACCE1119801338F
:10565000106014987B6044185060BC60072B00DD1C
:1056600037E408321600FFF797FB0F990A9A0B6888
:105670001A60D2175A600B0004330F93FEF7C1FF74
:105680004B4601311C430B78FEF7F4FFBB4B1193E3
:10569000FFF737F93A000699099802F05FF90028F8
:1056A00001D0FFF70AF8BC6832AEF1E54021099855
:1056B00001F0F6FA069B18601861002800D158E244
:1056C0004023069A5361FEF78EFF23AB1B9304938E
:1056D00020AB03931FAB02935346019303234A4627
:1056E00000930998079B00F009FB55461190119B08
:1056F0009846129BA844462B00D02BE7119B1B78A1
:10570000302B16D01F9B984424E73A00069909983D
:1057100002F024F9002801D0FEF7CFFF1F98BC68E3
:1057200032AE78E75346002B00D0DEE601339A46CE
:10573000DBE6002200234846079902F029FE0028F4
:10574000E0D101235B1B1F93984403E7119A32AB0E
:105750009B1A0E93FFF73AF81198FEF7ABFE020082
:105760000E900300FFF7CDF92D2316AAD3779846A4
:1057700000239A46FFF735F81F9B1393DA1C02DBD0
:105780009A4500DB0BE7129B023B12932C22139BE2
:1057900048215D1E16AB9B186A46521812781F9559
:1057A0001A70002D00DAA4E12D212B2316AA52181D
:1057B0001370092D00DC4CE116AA3B239446634488
:1057C0009A46B146A046564600E0260028000A2127
:1057D00002F0CAFD741E3031217028000A2102F047
:1057E000DDFC05000928F0DC23004446B0464E46A7
:1057F000994603003033D8B24346023B18709A45AD
:1058000000D8BDE142461B9B4546991A012307314A
:105810005B4201E0E85C013321AAD218D0708B42D0
:10582000F8D116A98C462E224B4662449446FB1AA8
:10583000634421AA14999B1A9C460A0062441A9355
:105840000E92012900DC45E1189A0E9B94466344B0
:105850001A000E93DB43DB171A40002307921393C1
:10586000AEE601235B420A93FEF72DFF3A0006994C
:10587000099802F073F8002801D0FEF71EFFBC68FB
:1058800032AE3CE43A000699099802F067F8002825
:1058900001D0FEF712FF1F9BBC6832AE6AE53A00EA
:1058A0000699099802F05AF8002801D0FEF705FF82
:1058B000BC6832AE57E53A000699099802F04EF8F6
:1058C000002801D0FEF7F9FE149B1F9ABC689B1AB2
:1058D00032AE6AE553460793062B01D90623079398
:1058E000079B0F950E93002398469A461393244BDB
:1058F00008941193FEF778FF2023129A9A431A3BDB
:105900000E929A46F1E523AB1B93049320AB0393CD
:105910001FAB02935346019303234A460093099811
:10592000079B00F0EBF9030053441190984655464D
:10593000E4E62D2316AAD3779846FEF7DBFF8022F4
:1059400012069446159B9946169B634407932D2394
:105950001093D7E5189A149B9446139A63440E93B8
:10596000002A00DCCEE01A00DB43DB171A40672375
:105970000792129324E6C04668A200082CA20008F1
:1059800060A200081F9B1393002B00DCC4E052466A
:10599000002A00D092E0E20700D58FE007930E9333
:1059A0000EE616ABDB7F0F959846534607930E9392
:1059B000002308949A461393FEF710FF119B984614
:1059C000129BA844472B00D0C4E5E30700D58EE620
:1059D000239B119A9B1A14930E9B472B00D1CBE665
:1059E0001F9B1393D2E64442103000DBBEE06B48AD
:1059F0001026050003E00832103C102C38DD103171
:105A0000013315605660B9607B60072BF3DD3A0007
:105A10000699099801F0A2FF002801D0FEF74DFE7B
:105A2000B9687B6832AAE7E73A000699099801F05D
:105A300095FF002801D0FEF740FE1F98B9687B68EB
:105A400032AA00E6189A139B944663441A000E93F8
:105A50008AE72E21302316AA521813702B0016AA9B
:105A6000013130335218137022ABE2E6239B85E5F7
:105A7000A94648460919013310605460B9600832DC
:105A80007B60072B00DCE1E53A000699099801F0FC
:105A900065FF002801D0FEF710FEB9687B6832AAC6
:105AA000D4E5129B472B34DC3D4B119380239C4360
:105AB00016ABDB7F08949846FEF726FF189A139BD7
:105AC0009446634453441A000E93DB43DB171A4099
:105AD000079275E501232340139300D0B4E60E9A94
